{
  "contractName": "ColdChain",
  "abi": [
    {
      "anonymous": false,
      "inputs": [
        {
          "indexed": false,
          "internalType": "address",
          "name": "entityId",
          "type": "address"
        },
        {
          "indexed": false,
          "internalType": "string",
          "name": "entityMode",
          "type": "string"
        }
      ],
      "name": "AddEntity",
      "type": "event"
    },
    {
      "anonymous": false,
      "inputs": [
        {
          "indexed": false,
          "internalType": "uint256",
          "name": "vaccineBatchId",
          "type": "uint256"
        },
        {
          "indexed": true,
          "internalType": "address",
          "name": "manufacturer",
          "type": "address"
        }
      ],
      "name": "AddVaccineBatch",
      "type": "event"
    },
    {
      "anonymous": false,
      "inputs": [
        {
          "indexed": true,
          "internalType": "address",
          "name": "issuer",
          "type": "address"
        },
        {
          "indexed": true,
          "internalType": "address",
          "name": "prover",
          "type": "address"
        },
        {
          "indexed": false,
          "internalType": "uint256",
          "name": "certificateId",
          "type": "uint256"
        }
      ],
      "name": "IssueCertificate",
      "type": "event"
    },
    {
      "inputs": [],
      "name": "MAXCERTIFICATIONS",
      "outputs": [
        {
          "internalType": "uint256",
          "name": "",
          "type": "uint256"
        }
      ],
      "stateMutability": "view",
      "type": "function",
      "constant": true
    },
    {
      "inputs": [
        {
          "internalType": "uint256",
          "name": "",
          "type": "uint256"
        }
      ],
      "name": "certificateIds",
      "outputs": [
        {
          "internalType": "uint256",
          "name": "",
          "type": "uint256"
        }
      ],
      "stateMutability": "view",
      "type": "function",
      "constant": true
    },
    {
      "inputs": [
        {
          "internalType": "uint256",
          "name": "",
          "type": "uint256"
        }
      ],
      "name": "certificates",
      "outputs": [
        {
          "internalType": "uint256",
          "name": "id",
          "type": "uint256"
        },
        {
          "components": [
            {
              "internalType": "address",
              "name": "id",
              "type": "address"
            },
            {
              "internalType": "enum ColdChain.Mode",
              "name": "mode",
              "type": "uint8"
            },
            {
              "internalType": "uint256[]",
              "name": "certificateIds",
              "type": "uint256[]"
            }
          ],
          "internalType": "struct ColdChain.Entity",
          "name": "issuer",
          "type": "tuple"
        },
        {
          "components": [
            {
              "internalType": "address",
              "name": "id",
              "type": "address"
            },
            {
              "internalType": "enum ColdChain.Mode",
              "name": "mode",
              "type": "uint8"
            },
            {
              "internalType": "uint256[]",
              "name": "certificateIds",
              "type": "uint256[]"
            }
          ],
          "internalType": "struct ColdChain.Entity",
          "name": "prover",
          "type": "tuple"
        },
        {
          "internalType": "bytes",
          "name": "signature",
          "type": "bytes"
        },
        {
          "internalType": "enum ColdChain.CertificateStatus",
          "name": "certificateStatus",
          "type": "uint8"
        }
      ],
      "stateMutability": "view",
      "type": "function",
      "constant": true
    },
    {
      "inputs": [
        {
          "internalType": "address",
          "name": "",
          "type": "address"
        }
      ],
      "name": "entities",
      "outputs": [
        {
          "internalType": "address",
          "name": "id",
          "type": "address"
        },
        {
          "internalType": "enum ColdChain.Mode",
          "name": "mode",
          "type": "uint8"
        }
      ],
      "stateMutability": "view",
      "type": "function",
      "constant": true
    },
    {
      "inputs": [
        {
          "internalType": "uint256",
          "name": "",
          "type": "uint256"
        }
      ],
      "name": "vaccineBatchIds",
      "outputs": [
        {
          "internalType": "uint256",
          "name": "",
          "type": "uint256"
        }
      ],
      "stateMutability": "view",
      "type": "function",
      "constant": true
    },
    {
      "inputs": [
        {
          "internalType": "uint256",
          "name": "",
          "type": "uint256"
        }
      ],
      "name": "vaccineBatches",
      "outputs": [
        {
          "internalType": "uint256",
          "name": "id",
          "type": "uint256"
        },
        {
          "internalType": "string",
          "name": "brand",
          "type": "string"
        },
        {
          "internalType": "address",
          "name": "manufacturer",
          "type": "address"
        }
      ],
      "stateMutability": "view",
      "type": "function",
      "constant": true
    },
    {
      "inputs": [
        {
          "internalType": "address",
          "name": "_id",
          "type": "address"
        },
        {
          "internalType": "string",
          "name": "_mode",
          "type": "string"
        }
      ],
      "name": "addEntity",
      "outputs": [],
      "stateMutability": "nonpayable",
      "type": "function"
    },
    {
      "inputs": [
        {
          "internalType": "string",
          "name": "brand",
          "type": "string"
        },
        {
          "internalType": "address",
          "name": "manufacturer",
          "type": "address"
        }
      ],
      "name": "addVaccineBatch",
      "outputs": [
        {
          "internalType": "uint256",
          "name": "",
          "type": "uint256"
        }
      ],
      "stateMutability": "nonpayable",
      "type": "function"
    },
    {
      "inputs": [
        {
          "internalType": "address",
          "name": "_issuer",
          "type": "address"
        },
        {
          "internalType": "address",
          "name": "_prover",
          "type": "address"
        },
        {
          "internalType": "uint256",
          "name": "vaccineBatchId",
          "type": "uint256"
        },
        {
          "internalType": "bytes",
          "name": "signature",
          "type": "bytes"
        },
        {
          "internalType": "enum ColdChain.CertificateStatus",
          "name": "certificateStatus",
          "type": "uint8"
        }
      ],
      "name": "issueCertificate",
      "outputs": [
        {
          "internalType": "uint256",
          "name": "",
          "type": "uint256"
        }
      ],
      "stateMutability": "nonpayable",
      "type": "function"
    },
    {
      "inputs": [
        {
          "internalType": "bytes32",
          "name": "message",
          "type": "bytes32"
        },
        {
          "internalType": "uint256",
          "name": "id",
          "type": "uint256"
        },
        {
          "internalType": "address",
          "name": "issuer",
          "type": "address"
        }
      ],
      "name": "isMatchingSignature",
      "outputs": [
        {
          "internalType": "bool",
          "name": "",
          "type": "bool"
        }
      ],
      "stateMutability": "view",
      "type": "function",
      "constant": true
    }
  ],
  "bytecode": "0x608060405234801561001057600080fd5b506125a7806100206000396000f3fe608060405234801561001057600080fd5b506004361061009d5760003560e01c806345194c071161006657806345194c0714610183578063663b3e22146101b35780637aefaf39146101e7578063b5bad46d14610217578063fc79b0a9146102335761009d565b806202748b146100a257806303a692b9146100c05780630dee0c0f146100f25780630f9c774d146101225780631d8ee48a14610152575b600080fd5b6100aa610263565b6040516100b79190611787565b60405180910390f35b6100da60048036038101906100d591906117e2565b610268565b6040516100e9939291906118e9565b60405180910390f35b61010c60048036038101906101079190611aad565b61033a565b6040516101199190611787565b60405180910390f35b61013c600480360381019061013791906117e2565b61090f565b6040516101499190611787565b60405180910390f35b61016c60048036038101906101679190611b44565b610933565b60405161017a929190611be8565b60405180910390f35b61019d60048036038101906101989190611c47565b610984565b6040516101aa9190611cb5565b60405180910390f35b6101cd60048036038101906101c891906117e2565b610d42565b6040516101de959493929190611e99565b60405180910390f35b61020160048036038101906101fc91906117e2565b610ff3565b60405161020e9190611787565b60405180910390f35b610231600480360381019061022c9190611fa2565b611017565b005b61024d60048036038101906102489190611ffe565b6111d4565b60405161025a9190611787565b60405180910390f35b600281565b600260205280600052604060002060009150905080600001549080600101805461029190612089565b80601f01602080910402602001604051908101604052809291908181526020018280546102bd90612089565b801561030a5780601f106102df5761010080835404028352916020019161030a565b820191906000526020600020905b8154815290600101906020018083116102ed57829003601f168201915b5050505050908060020160009054906101000a900473ffffffffffffffffffffffffffffffffffffffff16905083565b600080600460008873ffffffffffffffffffffffffffffffffffffffff1673ffffffffffffffffffffffffffffffffffffffff1681526020019081526020016000206040518060600160405290816000820160009054906101000a900473ffffffffffffffffffffffffffffffffffffffff1673ffffffffffffffffffffffffffffffffffffffff1673ffffffffffffffffffffffffffffffffffffffff1681526020016000820160149054906101000a900460ff16600281111561040257610401611b71565b5b600281111561041457610413611b71565b5b81526020016001820180548060200260200160405190810160405280929190818152602001828054801561046757602002820191906000526020600020905b815481526020019060010190808311610453575b50505050508152505090506000600281111561048657610485611b71565b5b8160200151600281111561049d5761049c611b71565b5b146104dd576040517f08c379a00000000000000000000000000000000000000000000000000000000081526004016104d490612106565b60405180910390fd5b6000600460008873ffffffffffffffffffffffffffffffffffffffff1673ffffffffffffffffffffffffffffffffffffffff1681526020019081526020016000206040518060600160405290816000820160009054906101000a900473ffffffffffffffffffffffffffffffffffffffff1673ffffffffffffffffffffffffffffffffffffffff1673ffffffffffffffffffffffffffffffffffffffff1681526020016000820160149054906101000a900460ff1660028111156105a4576105a3611b71565b5b60028111156105b6576105b5611b71565b5b81526020016001820180548060200260200160405190810160405280929190818152602001828054801561060957602002820191906000526020600020905b8154815260200190600101908083116105f5575b50505050508152505090506001600281111561062857610627611b71565b5b8160200151600281111561063f5761063e611b71565b5b1461067f576040517f08c379a000000000000000000000000000000000000000000000000000000000815260040161067690612172565b60405180910390fd5b600080805490509050600081908060018154018082558091505060019003906000526020600020016000909190919091505560006040518060a001604052808381526020018581526020018481526020018881526020018760048111156106e9576106e8611b71565b5b815250905080600360008481526020019081526020016000206000820151816000015560208201518160010160008201518160000160006101000a81548173ffffffffffffffffffffffffffffffffffffffff021916908373ffffffffffffffffffffffffffffffffffffffff16021790555060208201518160000160146101000a81548160ff0219169083600281111561078757610786611b71565b5b021790555060408201518160010190805190602001906107a89291906115f8565b50505060408201518160030160008201518160000160006101000a81548173ffffffffffffffffffffffffffffffffffffffff021916908373ffffffffffffffffffffffffffffffffffffffff16021790555060208201518160000160146101000a81548160ff0219169083600281111561082657610825611b71565b5b021790555060408201518160010190805190602001906108479291906115f8565b5050506060820151816005019080519060200190610866929190611645565b5060808201518160060160006101000a81548160ff0219169083600481111561089257610891611b71565b5b02179055509050508873ffffffffffffffffffffffffffffffffffffffff168a73ffffffffffffffffffffffffffffffffffffffff167fc9e3e855764ebb21ed83dcdf8ed5e1398c752d6446308e092c28a84a77a199bd846040516108f79190611787565b60405180910390a38194505050505095945050505050565b6000818154811061091f57600080fd5b906000526020600020016000915090505481565b60046020528060005260406000206000915090508060000160009054906101000a900473ffffffffffffffffffffffffffffffffffffffff16908060000160149054906101000a900460ff16905082565b600080600360008581526020019081526020016000206040518060a001604052908160008201548152602001600182016040518060600160405290816000820160009054906101000a900473ffffffffffffffffffffffffffffffffffffffff1673ffffffffffffffffffffffffffffffffffffffff1673ffffffffffffffffffffffffffffffffffffffff1681526020016000820160149054906101000a900460ff166002811115610a3a57610a39611b71565b5b6002811115610a4c57610a4b611b71565b5b815260200160018201805480602002602001604051908101604052809291908181526020018280548015610a9f57602002820191906000526020600020905b815481526020019060010190808311610a8b575b5050505050815250508152602001600382016040518060600160405290816000820160009054906101000a900473ffffffffffffffffffffffffffffffffffffffff1673ffffffffffffffffffffffffffffffffffffffff1673ffffffffffffffffffffffffffffffffffffffff1681526020016000820160149054906101000a900460ff166002811115610b3757610b36611b71565b5b6002811115610b4957610b48611b71565b5b815260200160018201805480602002602001604051908101604052809291908181526020018280548015610b9c57602002820191906000526020600020905b815481526020019060010190808311610b88575b5050505050815250508152602001600582018054610bb990612089565b80601f0160208091040260200160405190810160405280929190818152602001828054610be590612089565b8015610c325780601f10610c0757610100808354040283529160200191610c32565b820191906000526020600020905b815481529060010190602001808311610c1557829003601f168201915b505050505081526020016006820160009054906101000a900460ff166004811115610c6057610c5f611b71565b5b6004811115610c7257610c71611b71565b5b8152505090508273ffffffffffffffffffffffffffffffffffffffff1681602001516000015173ffffffffffffffffffffffffffffffffffffffff1614610cee576040517f08c379a0000000000000000000000000000000000000000000000000000000008152600401610ce5906121de565b60405180910390fd5b6000610cfe868360600151611395565b905081602001516000015173ffffffffffffffffffffffffffffffffffffffff168173ffffffffffffffffffffffffffffffffffffffff1614925050509392505050565b6003602052806000526040600020600091509050806000015490806001016040518060600160405290816000820160009054906101000a900473ffffffffffffffffffffffffffffffffffffffff1673ffffffffffffffffffffffffffffffffffffffff1673ffffffffffffffffffffffffffffffffffffffff1681526020016000820160149054906101000a900460ff166002811115610de657610de5611b71565b5b6002811115610df857610df7611b71565b5b815260200160018201805480602002602001604051908101604052809291908181526020018280548015610e4b57602002820191906000526020600020905b815481526020019060010190808311610e37575b50505050508152505090806003016040518060600160405290816000820160009054906101000a900473ffffffffffffffffffffffffffffffffffffffff1673ffffffffffffffffffffffffffffffffffffffff1673ffffffffffffffffffffffffffffffffffffffff1681526020016000820160149054906101000a900460ff166002811115610edf57610ede611b71565b5b6002811115610ef157610ef0611b71565b5b815260200160018201805480602002602001604051908101604052809291908181526020018280548015610f4457602002820191906000526020600020905b815481526020019060010190808311610f30575b50505050508152505090806005018054610f5d90612089565b80601f0160208091040260200160405190810160405280929190818152602001828054610f8990612089565b8015610fd65780601f10610fab57610100808354040283529160200191610fd6565b820191906000526020600020905b815481529060010190602001808311610fb957829003601f168201915b5050505050908060060160009054906101000a900460ff16905085565b6001818154811061100357600080fd5b906000526020600020016000915090505481565b60006110228261146d565b90506000600267ffffffffffffffff8111156110415761104061195d565b5b60405190808252806020026020018201604052801561106f5781602001602082028036833780820191505090505b509050600060405180606001604052808673ffffffffffffffffffffffffffffffffffffffff1681526020018460028111156110ae576110ad611b71565b5b815260200183815250905080600460008773ffffffffffffffffffffffffffffffffffffffff1673ffffffffffffffffffffffffffffffffffffffff16815260200190815260200160002060008201518160000160006101000a81548173ffffffffffffffffffffffffffffffffffffffff021916908373ffffffffffffffffffffffffffffffffffffffff16021790555060208201518160000160146101000a81548160ff0219169083600281111561116b5761116a611b71565b5b0217905550604082015181600101908051906020019061118c9291906115f8565b509050507ff5a37da00f0e4029ee2682b1919ee55d7e6f9d7492237aad9bd1aea7d53d48748160000151856040516111c59291906121fe565b60405180910390a15050505050565b600080600267ffffffffffffffff8111156111f2576111f161195d565b5b6040519080825280602002602001820160405280156112205781602001602082028036833780820191505090505b50905060006001805490509050600060405180608001604052808381526020018781526020018673ffffffffffffffffffffffffffffffffffffffff16815260200184815250905080600260008481526020019081526020016000206000820151816000015560208201518160010190805190602001906112a29291906116cb565b5060408201518160020160006101000a81548173ffffffffffffffffffffffffffffffffffffffff021916908373ffffffffffffffffffffffffffffffffffffffff16021790555060608201518160030190805190602001906113069291906115f8565b509050506001829080600181540180825580915050600190039060005260206000200160009091909190915055806040015173ffffffffffffffffffffffffffffffffffffffff167fe85391abb5e51659c581dd95107048251657ee66755655cc08c9c0ec3a0a913982600001516040516113819190611787565b60405180910390a281935050505092915050565b6000806000806113a485611590565b92509250925060006040518060400160405280601c81526020017f19457468657265756d207369676e6564206d6573736167653a0a3332000000008152509050600081886040516020016113f992919061228b565b6040516020818303038152906040528051906020012090506001818686866040516000815260200160405260405161143494939291906122de565b6020604051602081039080840390855afa158015611456573d6000803e3d6000fd5b505050602060405103519550505050505092915050565b60008082604051602001611481919061235f565b60405160208183030381529060405280519060200120905060006040516020016114aa906123c2565b60405160208183030381529060405280519060200120905060006040516020016114d390612423565b60405160208183030381529060405280519060200120905060006040516020016114fc90612484565b60405160208183030381529060405280519060200120905082840361152857600094505050505061158b565b81840361153c57600194505050505061158b565b80840361155057600294505050505061158b565b6040517f08c379a0000000000000000000000000000000000000000000000000000000008152600401611582906124e5565b60405180910390fd5b919050565b600080600060418451146115d9576040517f08c379a00000000000000000000000000000000000000000000000000000000081526004016115d090612551565b60405180910390fd5b6020840151915060408401519050606084015160001a92509193909250565b828054828255906000526020600020908101928215611634579160200282015b82811115611633578251825591602001919060010190611618565b5b5090506116419190611751565b5090565b82805461165190612089565b90600052602060002090601f01602090048101928261167357600085556116ba565b82601f1061168c57805160ff19168380011785556116ba565b828001600101855582156116ba579182015b828111156116b957825182559160200191906001019061169e565b5b5090506116c79190611751565b5090565b8280546116d790612089565b90600052602060002090601f0160209004810192826116f95760008555611740565b82601f1061171257805160ff1916838001178555611740565b82800160010185558215611740579182015b8281111561173f578251825591602001919060010190611724565b5b50905061174d9190611751565b5090565b5b8082111561176a576000816000905550600101611752565b5090565b6000819050919050565b6117818161176e565b82525050565b600060208201905061179c6000830184611778565b92915050565b6000604051905090565b600080fd5b600080fd5b6117bf8161176e565b81146117ca57600080fd5b50565b6000813590506117dc816117b6565b92915050565b6000602082840312156117f8576117f76117ac565b5b6000611806848285016117cd565b91505092915050565b600081519050919050565b600082825260208201905092915050565b60005b8381101561184957808201518184015260208101905061182e565b83811115611858576000848401525b50505050565b6000601f19601f8301169050919050565b600061187a8261180f565b611884818561181a565b935061189481856020860161182b565b61189d8161185e565b840191505092915050565b600073ffffffffffffffffffffffffffffffffffffffff82169050919050565b60006118d3826118a8565b9050919050565b6118e3816118c8565b82525050565b60006060820190506118fe6000830186611778565b8181036020830152611910818561186f565b905061191f60408301846118da565b949350505050565b611930816118c8565b811461193b57600080fd5b50565b60008135905061194d81611927565b92915050565b600080fd5b600080fd5b7f4e487b7100000000000000000000000000000000000000000000000000000000600052604160045260246000fd5b6119958261185e565b810181811067ffffffffffffffff821117156119b4576119b361195d565b5b80604052505050565b60006119c76117a2565b90506119d3828261198c565b919050565b600067ffffffffffffffff8211156119f3576119f261195d565b5b6119fc8261185e565b9050602081019050919050565b82818337600083830152505050565b6000611a2b611a26846119d8565b6119bd565b905082815260208101848484011115611a4757611a46611958565b5b611a52848285611a09565b509392505050565b600082601f830112611a6f57611a6e611953565b5b8135611a7f848260208601611a18565b91505092915050565b60058110611a9557600080fd5b50565b600081359050611aa781611a88565b92915050565b600080600080600060a08688031215611ac957611ac86117ac565b5b6000611ad78882890161193e565b9550506020611ae88882890161193e565b9450506040611af9888289016117cd565b935050606086013567ffffffffffffffff811115611b1a57611b196117b1565b5b611b2688828901611a5a565b9250506080611b3788828901611a98565b9150509295509295909350565b600060208284031215611b5a57611b596117ac565b5b6000611b688482850161193e565b91505092915050565b7f4e487b7100000000000000000000000000000000000000000000000000000000600052602160045260246000fd5b60038110611bb157611bb0611b71565b5b50565b6000819050611bc282611ba0565b919050565b6000611bd282611bb4565b9050919050565b611be281611bc7565b82525050565b6000604082019050611bfd60008301856118da565b611c0a6020830184611bd9565b9392505050565b6000819050919050565b611c2481611c11565b8114611c2f57600080fd5b50565b600081359050611c4181611c1b565b92915050565b600080600060608486031215611c6057611c5f6117ac565b5b6000611c6e86828701611c32565b9350506020611c7f868287016117cd565b9250506040611c908682870161193e565b9150509250925092565b60008115159050919050565b611caf81611c9a565b82525050565b6000602082019050611cca6000830184611ca6565b92915050565b611cd9816118c8565b82525050565b611ce881611bc7565b82525050565b600081519050919050565b600082825260208201905092915050565b6000819050602082019050919050565b611d238161176e565b82525050565b6000611d358383611d1a565b60208301905092915050565b6000602082019050919050565b6000611d5982611cee565b611d638185611cf9565b9350611d6e83611d0a565b8060005b83811015611d9f578151611d868882611d29565b9750611d9183611d41565b925050600181019050611d72565b5085935050505092915050565b6000606083016000830151611dc46000860182611cd0565b506020830151611dd76020860182611cdf565b5060408301518482036040860152611def8282611d4e565b9150508091505092915050565b600081519050919050565b600082825260208201905092915050565b6000611e2382611dfc565b611e2d8185611e07565b9350611e3d81856020860161182b565b611e468161185e565b840191505092915050565b60058110611e6257611e61611b71565b5b50565b6000819050611e7382611e51565b919050565b6000611e8382611e65565b9050919050565b611e9381611e78565b82525050565b600060a082019050611eae6000830188611778565b8181036020830152611ec08187611dac565b90508181036040830152611ed48186611dac565b90508181036060830152611ee88185611e18565b9050611ef76080830184611e8a565b9695505050505050565b600067ffffffffffffffff821115611f1c57611f1b61195d565b5b611f258261185e565b9050602081019050919050565b6000611f45611f4084611f01565b6119bd565b905082815260208101848484011115611f6157611f60611958565b5b611f6c848285611a09565b509392505050565b600082601f830112611f8957611f88611953565b5b8135611f99848260208601611f32565b91505092915050565b60008060408385031215611fb957611fb86117ac565b5b6000611fc78582860161193e565b925050602083013567ffffffffffffffff811115611fe857611fe76117b1565b5b611ff485828601611f74565b9150509250929050565b60008060408385031215612015576120146117ac565b5b600083013567ffffffffffffffff811115612033576120326117b1565b5b61203f85828601611f74565b92505060206120508582860161193e565b9150509250929050565b7f4e487b7100000000000000000000000000000000000000000000000000000000600052602260045260246000fd5b600060028204905060018216806120a157607f821691505b6020821081036120b4576120b361205a565b5b50919050565b7f497373756572206d6f6465207265717569726564000000000000000000000000600082015250565b60006120f060148361181a565b91506120fb826120ba565b602082019050919050565b6000602082019050818103600083015261211f816120e3565b9050919050565b7f50726f766572206d6f6465207265717569726564000000000000000000000000600082015250565b600061215c60148361181a565b915061216782612126565b602082019050919050565b6000602082019050818103600083015261218b8161214f565b9050919050565b7f497373756572206d69736d617463680000000000000000000000000000000000600082015250565b60006121c8600f8361181a565b91506121d382612192565b602082019050919050565b600060208201905081810360008301526121f7816121bb565b9050919050565b600060408201905061221360008301856118da565b8181036020830152612225818461186f565b90509392505050565b600081905092915050565b600061224482611dfc565b61224e818561222e565b935061225e81856020860161182b565b80840191505092915050565b6000819050919050565b61228561228082611c11565b61226a565b82525050565b60006122978285612239565b91506122a38284612274565b6020820191508190509392505050565b6122bc81611c11565b82525050565b600060ff82169050919050565b6122d8816122c2565b82525050565b60006080820190506122f360008301876122b3565b61230060208301866122cf565b61230d60408301856122b3565b61231a60608301846122b3565b95945050505050565b600081905092915050565b60006123398261180f565b6123438185612323565b935061235381856020860161182b565b80840191505092915050565b600061236b828461232e565b915081905092915050565b7f4953535545520000000000000000000000000000000000000000000000000000600082015250565b60006123ac600683612323565b91506123b782612376565b600682019050919050565b60006123cd8261239f565b9150819050919050565b7f50524f5645520000000000000000000000000000000000000000000000000000600082015250565b600061240d600683612323565b9150612418826123d7565b600682019050919050565b600061242e82612400565b9150819050919050565b7f5645524946494552000000000000000000000000000000000000000000000000600082015250565b600061246e600883612323565b915061247982612438565b600882019050919050565b600061248f82612461565b9150819050919050565b7f526563656976656420696e76616c696420656e74697479206d6f646500000000600082015250565b60006124cf601c8361181a565b91506124da82612499565b602082019050919050565b600060208201905081810360008301526124fe816124c2565b9050919050565b7f496e76616c6964207369676e6174757265206c656e6774680000000000000000600082015250565b600061253b60188361181a565b915061254682612505565b602082019050919050565b6000602082019050818103600083015261256a8161252e565b905091905056fea2646970667358221220ffb7b229518ef91ec70cbe158975325761c2df119a4556c33b055cd8102fe43b64736f6c634300080d0033",
  "immutableReferences": {},
  "source": "// SPDX-License-Identifier: MIT\r\npragma solidity ^0.8.13;\r\n\r\nlibrary CryptoSuite {\r\n    function SplitSignature(bytes memory sig) internal pure returns(uint8 v, bytes32 r, bytes32 s) {\r\n        require(sig.length == 65, \"Invalid signature length\");\r\n\r\n        assembly {\r\n            r := mload(add(sig, 32))\r\n            s := mload(add(sig, 64))\r\n            v := byte(0, mload(add(sig, 96)))\r\n        }\r\n        return (v, r, s);\r\n    }\r\n\r\n    function RecoverSigner(bytes32 message, bytes memory sig) internal pure returns(address) {\r\n        (uint8 v, bytes32 r, bytes32 s) = SplitSignature(sig);\r\n        bytes memory prefix = \"\\x19Ethereum signed message:\\n32\";\r\n        bytes32 prefixedHash = keccak256(abi.encodePacked(prefix, message));\r\n        return ecrecover(prefixedHash, v, r, s);\r\n    }\r\n}\r\n\r\ncontract ColdChain {\r\n    enum Mode { ISSUER, PROVER, VERIFIER }\r\n    enum CertificateStatus { MANUFACTURED, DELIVERING_INTERNATIONAL, STORED, DELIVERING_LOCAL, DELIVERED }\r\n\r\n    struct Entity {\r\n        address id;\r\n        Mode mode;\r\n        uint[] certificateIds;\r\n    }\r\n\r\n    struct Certificate {\r\n        uint id;\r\n        Entity issuer;\r\n        Entity prover;\r\n        bytes signature;\r\n        CertificateStatus certificateStatus;\r\n    }\r\n\r\n    struct VaccineBatch {\r\n        uint id;\r\n        string brand;\r\n        address manufacturer;\r\n        uint[] certificateIds;\r\n    }\r\n\r\n    uint public constant MAXCERTIFICATIONS = 2;\r\n    uint[] public certificateIds;\r\n    uint[] public vaccineBatchIds;\r\n\r\n    mapping(uint => VaccineBatch) public vaccineBatches;\r\n    mapping(uint => Certificate) public certificates;\r\n    mapping(address => Entity) public entities;\r\n\r\n    event AddEntity(address entityId, string entityMode);\r\n    event AddVaccineBatch(uint vaccineBatchId, address indexed manufacturer);\r\n    event IssueCertificate(address indexed issuer, address indexed prover, uint certificateId);\r\n\r\n    function addEntity(address _id, string memory _mode) public {\r\n        Mode mode = unmarshalMode(_mode);\r\n        uint[] memory _certificateIds = new uint[](MAXCERTIFICATIONS);\r\n        Entity memory entity = Entity(_id, mode, _certificateIds);\r\n        entities[_id] = entity;\r\n        emit AddEntity(entity.id, _mode);\r\n    }\r\n\r\n    function unmarshalMode(string memory _mode) private pure returns(Mode mode) {\r\n        bytes32 encodedMode = keccak256(abi.encodePacked(_mode));\r\n        bytes32 encodedMode0 = keccak256(abi.encodePacked(\"ISSUER\"));\r\n        bytes32 encodedMode1 = keccak256(abi.encodePacked(\"PROVER\"));\r\n        bytes32 encodedMode2 = keccak256(abi.encodePacked(\"VERIFIER\"));\r\n\r\n        if (encodedMode == encodedMode0) {\r\n            return Mode.ISSUER;\r\n        } else if (encodedMode == encodedMode1) {\r\n            return Mode.PROVER;\r\n        } else if (encodedMode == encodedMode2) {\r\n            return Mode.VERIFIER;\r\n        }\r\n        revert(\"Received invalid entity mode\");\r\n    }\r\n\r\n    function addVaccineBatch(string memory brand, address manufacturer) public returns(uint) {\r\n        uint[] memory _certificateIds = new uint[](MAXCERTIFICATIONS);\r\n        uint id = vaccineBatchIds.length;\r\n        VaccineBatch memory batch = VaccineBatch(id, brand, manufacturer, _certificateIds);\r\n        vaccineBatches[id] = batch;\r\n        vaccineBatchIds.push(id);\r\n        emit AddVaccineBatch(batch.id, batch.manufacturer);\r\n        return id;\r\n    }\r\n\r\n    function issueCertificate(\r\n        address _issuer, address _prover,\r\n        uint vaccineBatchId, bytes memory signature, CertificateStatus certificateStatus\r\n    ) public returns(uint) {\r\n        Entity memory issuer = entities[_issuer];\r\n        require(issuer.mode == Mode.ISSUER, \"Issuer mode required\");\r\n        \r\n        Entity memory prover = entities[_prover];\r\n        require(prover.mode == Mode.PROVER, \"Prover mode required\");\r\n\r\n        uint id = certificateIds.length;\r\n        certificateIds.push(id);\r\n\r\n        Certificate memory certificate = Certificate(id, issuer, prover, signature, certificateStatus);\r\n        certificates[id] = certificate;\r\n        \r\n        emit IssueCertificate(_issuer, _prover, id);\r\n        return id;\r\n    }\r\n\r\n    function unmarshalStatus(string memory _status) private pure returns(CertificateStatus status) {\r\n        bytes32 encodedStatus = keccak256(abi.encodePacked(_status));\r\n        bytes32 encodedStatus0 = keccak256(abi.encodePacked(\"MANUFACTURED\"));\r\n        bytes32 encodedStatus1 = keccak256(abi.encodePacked(\"DELIVERING_INTERNATIONAL\"));\r\n        bytes32 encodedStatus2 = keccak256(abi.encodePacked(\"STORED\"));\r\n        bytes32 encodedStatus3 = keccak256(abi.encodePacked(\"DELIVERING_LOCAL\"));\r\n        bytes32 encodedStatus4 = keccak256(abi.encodePacked(\"DELIVERED\"));\r\n\r\n        if (encodedStatus == encodedStatus0) {\r\n            return CertificateStatus.MANUFACTURED;\r\n        } else if (encodedStatus == encodedStatus1) {\r\n            return CertificateStatus.DELIVERING_INTERNATIONAL;\r\n        } else if (encodedStatus == encodedStatus2) {\r\n            return CertificateStatus.STORED;\r\n        } else if (encodedStatus == encodedStatus3) {\r\n            return CertificateStatus.DELIVERING_LOCAL;\r\n        } else if (encodedStatus == encodedStatus4) {\r\n            return CertificateStatus.DELIVERED;\r\n        }\r\n\r\n        revert(\"Received invalid certificate status\");\r\n    }\r\n\r\n    function isMatchingSignature(bytes32 message, uint id, address issuer) public view returns (bool) {\r\n        Certificate memory cert = certificates[id];\r\n        require(cert.issuer.id == issuer, \"Issuer mismatch\");\r\n        address recoveredSigner = CryptoSuite.RecoverSigner(message, cert.signature);\r\n        return recoveredSigner == cert.issuer.id;\r\n    }\r\n}\r\n",
  "sourcePath": "C:\\Users\\Hp\\Desktop\\ColdChain\\contracts\\ColdChain.sol",
  "compiler": {
    "name": "solc",
    "version": "0.8.13+commit.abaa5c0e.Emscripten.clang"
  },
  "schemaVersion": "3.4.16",
  "updatedAt": "2024-09-22T10:11:53.503Z",
  "networkType": "ethereum",
  "devdoc": {
    "kind": "dev",
    "methods": {},
    "version": 1
  },
  "userdoc": {
    "kind": "user",
    "methods": {},
    "version": 1
  }
}